:400000000080002011000000E1060000E106000008B5044B1A6803F53F5302331A6000F07FFB00BFFA46004010B5054C237833B9044B13B10448AFF300800123237010BD2F
:400040005881FF1F00000000F0270000084B10B51BB108490848AFF300800848036803B910BD074B002BFBD0BDE81040184700BF000000005C81FF1FF0270000C880FF1FB4
:400080000000000008B5002001F000FE014B188008BD00BFA081FF1F70B50E4615461C46C0B201F0F9F9F0B201F002FAE8B201F00BFAE0B201F014FA049800F0E1FC70BDFC
:4000C00010B4401A019CE41A04FB00F0521A90FBF2F0184410BC70472DE9F043C3B062B600F02EFE00F0BCFC00F01EFC00F0BAFE00F070FF01F064F901F006FB01F0ACFC1E
:4001000001F0DAFC002500F01DFC00F071FF01F06BF9002000F01EFC002000F071FF002001F06AF901F042FB18B901F01FFD01F0F7FBFFF7A7FF814600F01EFC5FFA80F8CA
:4001400000F070FFC7B201F06FF9044641F29416009640F25233FF2200214046FFF7B0FF8046009640F25233FF2200213846FFF7A7FF074641F23013009340F2523355227A
:400180000A214846FFF79CFF81461FFA88F000F015FCB8B200F014FE1FFA89F001F060FA231F9D4239DA0226009600231A4619460120FFF771FF009600231A46012108466F
:4001C000FFF76AFF009600231A4601211846FFF763FF00960023012211461846FFF75CFF00960023012219461846FFF755FF009601231A4600210846FFF74EFF0096012364
:40020000002211461046FFF747FF00960123002211461846FFF740FF0135231D9D4239DD022600960123002211461046FFF734FF009601231A4600210846FFF72DFF009667
:400240000023012219461846FFF726FF00960023012211461846FFF71FFF009600231A4601211846FFF718FF009600231A4601210846FFF711FF009600231A4619460120ED
:40028000FFF70AFF00960123002211461846FFF703FF013D012000F007FD022000F004FD2246124902A801F07FFE0021084600F055FD02A800F0EAFC3A460D4902A801F0D3
:4002C00073FE0021012000F049FD02A800F0DEFC4A46084902A801F067FE0021082000F03DFD02A800F0D2FC0DE700BFF42700000028000008280000FEE700BFF0B4002255
:40030000174611E050F82760F3B226F0FF0608E001EB420511F812406D78A5550132013BDBB2002BF4D10137212FEBD9F0BC704708B50A46002101F02EFE08BDF8B5244BC4
:400340001B78DBB2234E3478E4B2234F3D78EDB203F00701214A11701B090132137044F00303337045F003033B7014221C4B1A70102160331970002203F203731A70402273
:4003800091331A7002331A7006331A7002331A702023144803702530017013490A70134A137005321370033213704FF48871193211801432137001220D4B1A700A2000F0AE
:4003C00075FB3D70347044220A4B1A70F8BD00BFCF010049F8460040F94600406E5800400D510040DB5A0040205B0040235B00405B5B00407658004008B501F0C1FD08BDA6
:4004000038B50024314B1C80502202331A70012202331A8018232E4A13700B21023211800232137004222B492B48FFF7E5FF02222A4B1A7008224FF040231A70032103F516
:4004400000731970264B1B78DBB226490B70264B1A8041F25122023B1A8019250CE0234B1B7803F0010343EA440404F003044FF4F07001F049FD013D0DB1032CEFD115B958
:400480000320FFF739FF1A4B4FF480721A8007221A70002217490A704820023108701A700222033B1A7004220A331A70124A137843F007031370013A137843F0010313706B
:4004C000013A137843F08003137038BD80400040864000403C060048004100400043004008010049A146004022420040254200400440004006400040A2430040012807D879
:40050000044B53F820201844017A13780B431370704700BF10280000012808D8044B53F820201844017A137823EA01031370704710280000072809D8054B03EB8002D2682E
:40054000184490F82C1013780B431370704700BF1028000007280AD8054B03EB8002D268184490F82C10137823EA0103137070471028000038B572B6424A137843F00403B2
:40058000137000240BE0404863001A19510001440A46098F506BFFF7CBFE0134E4B2082CF1D900240BE03849A3001819420088188022016FC06EFFF71FFF0134E4B2002C39
:4005C000F1D032494FF09040FFF798FE4FF440722F4B1A800A2211331A7040F20332353B1A802C4A03F52E438A331A602A4A137843F0020313701032137843F00203137058
:40060000264C237843F040032370A2F58632513A137843F010031370082221492148FFF7EBFE082220492148FFF7E6FE082220492048FFF7E1FE08221F492048FFF7DCFE2A
:4006400008221F491F48FFF7D7FE08221E491F48FFF7D2FE1E4A137843F0080313701D4D61232B70FFF7CCFE81232B7001221A4B1A70FFF763FE0E2221461848FFF7BCFEAC
:4006800038BD00BFE84600401028000088000048725800400400044403500140A04300400C0600480251004014060048125100401C060048225100402406004842510040AF
:4006C0002C060048525100403406004862510040224300400048004004000840B043004008B501F021FC03680C2B00D1FEE7FEE708B5094B1A681044084BC31A802B02DCD4
:40070000054B186005E001F00FFC0C2303604FF0FF32104608BD00BFCC80FF1F0082FF1F08B5104E104D16E029686B68AC68002204E051F8040B43F8040B0432A242F8D1B9
:40074000E868002203E0002143F8041B04328242F9D11035013E002EE6D101F0EBFBFFF7BBFCFEE7010000003829000008B5104A104B1A60104A136843F4007313600023B0
:400780000AE0032B03D80D4A52F8231000E00C490C4A42F8231001332F2BF2D90A4B1A780A4B1A70074A0A4B1A60FFF7E3FE08BD0004FA050CED00E014ED00E000000000E2
:4007C000E10600000080FF1FBC760040C080FF1F08ED00E008B50A280FD00C2802D0082806D102E04FF4805209E04FF4807206E0002000F043F9002201E04FF48062002164
:40080000094B198042F2107303FB02F303F6C413064A82FB0302DB17C3EBE223044A1360044B198008BD00BFA481FF1FAD8BDB68A881FF1FA681FF1F10B501F06DFB0446FB
:40084000194A137843F0020313701032137843F00203137002F5AA521032137843F0030313701822114B1A70013B1A7842F040021A701A7802F0FC021A70C822053B1A701F
:400880000222A3F59753123B1A70094A137843F0080313700A2000F009F90122054B1A60204601F03DFB10BDAB4300400E5900402F5B004080E200E010B504460A280DD0B8
:4008C0000C2802D0082804D101E0C22207E0422205E0002000F0D2F8C22200E08222034B1A702046FFF776FF10BD00BF0A59004008B50721002000F0F7F80849002000F099
:40090000DFF8074A137843F0060313700820FFF7D3FF0022034B1A8008BD00BF9109000009590040AC81FF1F08B5054B1B7823B9FFF7DEFF0122024B1A70FFF77DFF08BDC0
:400940007481FF1F024A137843F00103137070470859004010B5074B1B7813F0010401D10028F8D024B1012000F0A0F8014B1B78204610BD09590040034B1B78034A10880F
:4009800000B2181A40B27047A25B0040A681FF1F704700BF024A137843F080031370704775650040014B1880704700BF086A0040014B1880704700BF886A0040014B188055
:4009C000704700BF486A0040014B1870704700BF85650040014B1878704700BF65650040014B188880B27047A86A004008B501E0FFF7F6FFFFF7EEFF10F0100FF8D108BD7F
:400A000010B5154A137803F0C00343F0090313701F32137843F001031370104C237843F00103237049F64040FFF7BCFF49F64040FFF7BEFF4FF47A70FFF7C0FF0020FFF75E
:400A4000C3FF01F069FA237843F01003237001F067FAFFF7CBFF10BD756500409565004008B5054B1B7823B9FFF7CAFF0122024B1A70FFF78FFF08BD7581FF1F01BE7047B1
:400A800010B5044605E0084B186801F03DFAA4F50044B4F5004FF6D8034B586800FB04F001F032FA10BD00BFD080FF1F08B5034B1B7A00FB03F001F027FA08BDD080FF1FBD
:400AC00070B504460E46074B1D681F2802D90020FFF7D4FF04F01F04103455F8240045F8246070BD08ED00E038B504460D46072902D90020FFF7C2FF1F2C02D90020FFF71A
:400B0000BDFF04F01F0000F1604000F564406D01EDB2057038BD00BF10B50B4C237803F09F032370237803F0F00323702378184340F0100020700120FFF7B8FF237803F071
:400B4000EF03237010BD00BF2051004038B505460E4C237843F020032370237803F0BF0323700020FFF7A2FF237803F0F003237023781D4345F0100525700120FFF796FF69
:400B8000237803F0EF03237038BD00BF2051004070B5354B1A7802F08002D2B21A7033490A7802F0F00242F00F020A7001310A7802F0F0020A7001310A7802F0F0020A7041
:400BC0001A7802F0DF021A701A7842F040021A704FF4CA760020FFF769FF234D2B7843F010032B700120FFF761FF214B1C78E4B22B7803F0EF032B700020FFF757FF04F0F1
:400C00000804E4B22B7843F010032B700120FFF74DFF2B7803F0EF032B7014B90A20FFF745FF013E0CB1002ED4D10F4A137803F0BF031370137803F08003DBB213700232A7
:400C4000137803F0F00313700132137803F0F00343F00F0313700132137803F0F00343F00F03137070BD00BF20510040225100402151004010B50446FFF78AFF2009FFF7F9
:400C800065FF04F00F00FFF761FF10BD38B505460078012404E0FFF7EDFF285D0134E4B20028F8D138BD00BF10B50446FFF770FF2009FFF731FF04F00F00FFF72DFF10BD65
:400CC00008B52820FFF7DCFE0320FFF725FF0520FFF7D6FE0320FFF71FFF0F20FFF7D0FE0320FFF719FF0120FFF7CAFE0220FFF713FF0520FFF7C4FE0620FFF7D5FF0E2094
:400D0000FFF7D2FF2C20FFF7CFFF0820FFF7CCFF0120FFF7C9FF0C20FFF7C6FF0320FFF7C3FF0520FFF7ACFE08BD00BF08B50C20FFF7BAFF0122014B1A7008BD7681FF1F9E
:400D400008B5054B5B7823B9FFF7BAFF0122024B5A70FFF7EBFF08BD7681FF1F08B5032819D8DFE800F002070D1381F08000FFF79BFF08BDA1F14000C0B2FFF795FF08BD82
:400D8000A1F16C00C0B2FFF78FFF08BDA1F12C00C0B2FFF789FF08BD024A137843F080031370704777650040014B1880704700BF0C6A0040014B1880704700BF8C6A004084
:400DC000014B1880704700BF4C6A0040014B1870704700BF87650040014B1878704700BF67650040014B188880B27047AC6A004008B501E0FFF7F6FFFFF7EEFF10F0100F19
:400E0000F8D108BD10B5154A137803F0C00343F0090313701F32137843F001031370104C237843F00103237049F64040FFF7BCFF49F64040FFF7BEFF4FF47A70FFF7C0FFE2
:400E40000020FFF7C3FF01F067F8237843F01003237001F065F8FFF7CBFF10BD776500409765004008B5054B1B7823B9FFF7CAFF0122024B1A70FFF78FFF08BD7881FF1F0E
:400E800008B50A280FD00C2802D0082806D102E04FF4805209E04FF4807206E00020FFF7EDFD002201E04FF480620021094B198042F2107303FB02F303F6C413064A82FBDF
:400EC0000302DB17C3EBE223044A1360044B198008BD00BFB881FF1FAD8BDB68B081FF1FB481FF1F38B501F017F80446194A137843F0010313701032137843F00103137041
:400F000002F5AA520832137843F0030313701822114B1A70013B1A7842F040021A701A7802F0FC021A70C822053B1A700225A3F597530C3B1D70094A137843F00803137075
:400F40000A20FFF7B3FD064B1D60204600F0E8FF38BD00BFAB43004006590040275B004080E200E010B504460A280DD00C2802D0082804D101E0C22207E0422205E00020D3
:400F8000FFF77CFDC22200E08222034B1A702046FFF776FF10BD00BF0259004008B507210120FFF7A1FD08490120FFF789FD074A137843F0060313700820FFF7D3FF002255
:400FC000034B1A8008BD00BF3D10000001590040B681FF1F08B5054B1B7823B9FFF7DEFF0122024B1A70FFF77DFF08BD7981FF1F024A137843F001031370704700590040D0
:4010000010B5074B1B7813F0010401D10028F8D024B10120FFF74AFD014B1B78204610BD01590040034B1B78034A108800B2181A40B27047A05B0040B481FF1F704700BF06
:4010400010B59DF80840012C51D1013809282ED8DFE800F0052D2D052D2D0F192D230F2B03D92548007840B222E02448007840B21EE00F2B03D92248007840B218E0214814
:40108000007840B214E00F2B03D91F48007840B20EE01E48007840B20AE00F2B03D91C48007840B204E01B48007840B200E0002001EB401101FB02F1C90B8AB20D2B0BD857
:4010C000C3F10E0289B211418AB2611E124800EB810101338B7005E0631E0F4901EB83030F219970013C0C4B23F8242010BD0020FFF7C4FC10BD00BF180100491C0100499B
:40110000190100491D0100491A0100491E0100491B0100491F0100497C81FF1FF8B5074600F0FAFE06460D4D2B7843F003032B700B4C237843F0030323700A4B1F7003206C
:40114000FFF7B4FC2B7803F0FC032B70237803F0FC032370304600F0E3FEF8BDF8460040F94600409258004000222F4B1A71012859D170B538222D4B1A70042202331A7076
:40118000062201331A70002401331C7001331C700F2201331A7002331C7001331C7001331C7001250A331D70142203F527631A70052601331E70162201331A7001331C70A0
:4011C000442203331A70482201331A7001331D7002331D70112201331A70192201331A70972201331A705220FFF798FF5822104B1A7001331C7005331E70022201331A70F7
:4012000001331C7001331C70204600F009FA3322084B1A602946304600F086F906491D20FFF74EFC70BD70477C81FF1F004E004094580040BC81FF1F95140000F0B583B0FE
:40124000274D01272F70274E00247471102000F059F907211D20FFF747FC0422224B1A7001331C7007331C70204A137843F0180313701F4B1C7003F2F5231C7001331C70ED
:401280000A22A3F209331A7001331C7002331C70122205331A70132201331A7004331C701422A3F68C231A70009708234FF4004248F66B510220FFF7C3FE2B78013B06EB88
:4012C00083039A780B4B1A702B78013B36F82320094B1A802878FFF747FF03B0F0BD00BFE080FF1F7C81FF1F96580040075B0040935800400E4E00400C4E004070B500F05E
:401300000BFE0646254B1B78254B1A7842F001021A701A7842F010021A7010331A7842F001021A701A7842F010021A701D4D2B7843F002032B701C4C237843F00203237092
:401340001A4A137843F0030313700320FFF7AEFB2B7803F0FD032B70237803F0FD032370134A137843F0060313707A22114B1A70114A137843F0010313701032137843F0E5
:40138000010313704FF000530C4A1360A2F5C0721360304600F0C4FD70BD00BFE080FF1FAA430040F8460040F9460040915800407758004082580040A243004080E200E09B
:4013C00008B5084B9B794BB9064BDB7913F0FF0F01D1FFF733FF0122024B9A71FFF78EFF08BD00BF7C81FF1F024A137843F0010313707047004E0040094B1B7913F0FF0FA9
:4014000003D0074B5B79DBB203E0064B1B7803F00103012B01D00028EED01846704700BF7C81FF1F014E0040154B1B7803F00303012B07D8134B1888023B1B889BB243EAB8
:40144000004013E0022B0AD10E4B1888023B1B7843EA00430C4A107843EA002006E00B4B188883B2074A108843EA0040084B1B7913F0FF0F02D00022054B5A71704700BFE9
:40148000144E0040124E0040114E0040104E00407C81FF1F704700BF044A137803F0FE0300F0010018431070704700BF40510040044A137803F0FD03400000F002001843E3
:4014C0001070704740510040044A137803F0FB03800000F0040018431070704740510040044A137803F0F703C00000F0080018431070704740510040014B188880B270478D
:4015000080400040034B1A7800F0F80010431870704700BF82400040024B187800F00700704700BF8240004070B505460E46FFF7F3FF0446FFF7E0FFA84256D02B4B1B7860
:4015400003F0010294B900B185B938B9284B1D80284A137803F0BF03137070BD254A137843F040031370224B1D8070BD22B3002321490B7001240F310C7004310B700C39F9
:401580000B7803F07F030B701A4B1B7813F0080F00D08DB9194B18800721013B1970164B1B7813F0010FFAD110490B7803F0FE030B700021104B19700C4B1B7813F0010F88
:4015C0000DD00E4B1D800EB1032200E001220A4B1A70094B1B7813F0010FFAD170BD044B1D8002490B7813430B7070BDA2430040804000408240004001400040024000407E
:4016000010B5002404E02046FEF786FF0134E4B2012CF8D9FF22014B1A7010BDE180FF1F10B50446FFF7ECFF2046FEF767FF014B1C7010BDE180FF1F024A137843F080038F
:401640001370704774640040014B1880704700BF04680040014B1880704700BF84680040014B1880704700BF44680040014B1870704700BF84640040014B1878704700BF82
:4016800064640040014B188880B27047A468004008B501E0FFF7F6FFFFF7EEFF10F0100FF8D108BD08B5164A137803F0C00343F0090313701E32137843F001031370013200
:4016C000137843F00103137049F64040FFF7BCFF49F64040FFF7BEFF4FF47A70FFF7C0FF0020FFF7C3FF00F017FC064A137843F01003137000F014FCFFF7CAFF08BD00BF1F
:40170000746400409464004008B5054B1B7823B9FFF7C8FF0122024B1A70FFF78DFF08BD8881FF1F10B500F0F7FB0446134A137843F02003137000F0D9FB00F0FDFA00F06B
:4017400053FB0F4A137843F010031370103A137843F01003137002F5A6520532137843F001031370204600F0DBFB0422054B1A60054A137843F08003137010BD976400402E
:40178000BB43004000E100E0736400400130C0B2052808D0C20800F0070101238B4002498A5C1342F2D07047E480FF1F024B187800F00100704700BFC181FF1F10B50B4B7A
:4017C000195C1A18147A03EB80031B6909221A700F2900D10721054A02EB8102526A137823431370FEF7A6FE10BD00BF8828000070B505460B4B1C5C03441E7AFEF7AAFE5B
:401800000F2C00D10724074800EB8404626A137823EA0603137000EB8500036908221A7070BD00BF8828000010B5002404E02046FFF7DEFF0134E4B2042CF8D910BD00BF35
:4018400010B50E4A137803F0FC0313700C4B1B781B020C4921F81030723A12781343DB4321F81030FFF7C4FF002000F0D9FA064A137843F00103137010BD00BF73640040BF
:4018800011640040C481FF1F70580040024B187040081033187070472764004010B50446074B034493F8440000F0BAFA3F22054B1A70054B1C442079FFF7E8FF10BD00BF96
:4018C0008828000050640040E480FF1F38B50546FFF7E4FF084C237843F001032370074A137803F0FE0313702846FFF767FF237843F00203237038BD736400407058004061
:4019000008B5054B00221A70044A107081221A70FFF7DCFF08BD00BFC181FF1FC081FF1F10B500220A4B1A700A4CFF2323702078FFF72CFF20702378DBB2042B07D8044A41
:40194000137843F0010313702078FFF7BFFF10BDC181FF1FC081FF1F012805D1054A137803F0EF0313707047024A137843F01003137070477364004038B5FFF755FF02208B
:40198000FFF7EAFF00F0C8FA2D4A137843F0030313700132137843F00303137000F0C0FA4FF43442274B1A804FF6FF7520331D80072443331C7000F0AFFA234A137843F055
:4019C000030313700132137843F00303137000F0A7FAFF231D4A157020321370403A13702132137030321370103A1370042503F1E02381331D6016490220FFF761F8214663
:401A00000220FFF771F800F06DFA0520FEF792FD0620FEF78FFD2046FEF78CFD0D4A13782B43137000F0C2F900F01AFA002000F02DFA284600F03AFA002000F0F1F938BD60
:401A400094640040246400409064004020640040E91C00007364004008B5054B1B7823B9FFF78AFF0122024B1A70FFF75BFE08BD8981FF1F064B33F81020064B23F81020D9
:401A80000023054A1354054A22F81030704700BFC481FF1FDC81FF1FE881FF1FD081FF1F10B50446FFF72CFFFFF780FE0028FBD12046FFF7DFFF10BD10B5002404E0204688
:401AC000FFF7EEFF0134E4B2042CF8D910BD00BF70B50446204B33F81030204A32F810108B4203D35D1AADB2012602E0CD1AADB2002686B9142D0ED9194B1B5D042B06D973
:401B00002046FFF7B7FF0022154B1A5517E00133134A135513E02A2D02D9132D0FD876B91048025D42EA012213445B1AC3F30F210A4A22F8141003550022094B1A552A2D59
:401B400004D91EB1084B23F8145070BD0022064B23F8142070BD00BFC481FF1FDC81FF1FF481FF1FE881FF1FD081FF1F10B500240DE0E20804F0070101238B4005498A5CC6
:401B8000134202D02046FFF7A3FF0134E4B2042CEFD910BDE480FF1F70B40A4D05EB40050026FF20334609E035F81340944203D9A64201D2264618460133DBB28B42F3D38C
:401BC00070BC7047D081FF1FF0B5BDF814502A4C04EB4101044610B1461EF6B200E00026601CC0B231F814E0244FA7F806E02CB90026BE8031F81010398110E0013A9442C1
:401C000006D131F816101D4A91800021118106E031F81660194A968031F810101181174A9288AA4203D9521B14498A8002E00021124A9180114AD188491B89B2D1801289B4
:401C4000954203D2551B0D4A158102E000200B4A10810A4A10899588421B29440844120292FBF0F000EB04201BB200FB03F000F5FE40C0F30740F0BDD081FF1F8C81FF1F94
:401C8000084400EB4100C0F38F00704730B583B0144B1C5C542205210020FFF77DFFFF2819D02A2300934FF4C85305220021FFF78BFF034680B2651CEDB20A4A125D22B947
:401CC000084A5355012313550AE0064C615DFFF7D7FF605504E00022024B1A554FF6FF7003B030BDF080FF1F10B5114B1878FFF7A7FD104B1B7813F0800F05D00D4A1378BD
:401D000003F0FE03137010BD094C2078FFF73EFD20702378DBB2042B03D82078FFF7D6FD10BD044A137803F0FE03137010BD00BFC081FF1FC181FF1F054A137843F008039E
:401D400013701032137843F008031370704700BFA74300400F490B7803F0FC0200F0030313430B7001280AD10B4B1B78DBB20B4A13700B4B1B78DBB2013213707047094B96
:401D80001B78DBB2054A1370074B1B78DBB201321370704743580040130100493646004017010049B3010049BB01004908B50020FFF7D0FF0B4B1A7842F020021A701A7801
:401DC00002F0FB021A701A7842F008021A7003F527731A7802F0E7021A701A7842F010021A7008BD43580040054A137843F0080313701032137843F008031370704700BFEA
:401E0000A8430040054B1A7802F0FD021A701A7800F0020010431870704700BF2C580040014B1870704700BF835B0040094B1B7803F00C035B08084A127812F0040F00D00C
:401E4000013303F1924393F83831DBB2034A1370704700BF2C5800402D5800400B46004008B51422084B1A700133002018701A7842F004021A701A7842F002021A70FFF73C
:401E8000C1FFFFF7D3FF08BD2C58004008B5064B1A7802F0FB021A701A7800F0040010431870FFF7C3FF08BD2D58004008B5064B1A7802F0F3021A701A7800F00C00104363
:401EC0001870FFF7B3FF08BD2C58004010B5002404E02046FEF73EFB0134E4B2072CF8D910BD00BF08B5FFF7F1FF08BD054A137843F0020313701032137843F002031370E8
:401F0000704700BFA24300400230800803D000BF01380046FCD17047EFF3108072B6704780F31088704700BF014B1868704700BF5481FF1F0E4B70B51E460E4C0025E41A51
:401F4000A410A54204D056F8253098470135F8E700F0E0FC084B094C1E46E41AA4100025A54204D056F8253098470135F8E770BD2029000020290000202900002829000001
:401F800010B5431E0A44914204D011F8014B03F8014FF8E710BD03460244934202D003F8011BFAE7704700000EB400B54FF402719CB0ADF814106FF00041049107914FF681
:401FC000FF711DAB02900690084853F8042BADF81610006802A9019300F064F8029B00221A701CB05DF804EB03B070475481FF1F2DE9F0478E6882469E420C469146984651
:402000003ED88A8912F4906F3AD02568096902236F1A656905EB450595FBF3F57B1C43449D4238BF1D4653050FD5294600F040FB064698B13A462169FFF7A2FFA38923F495
:40204000906343F08003A38113E02A4600F08EFB064670B92169504600F0DEFA0C23CAF80030A3894FF0FF3043F04003A381BDE8F08726613E44266046466561ED1BA560FB
:40208000464528BF464649463246206800F0A8FAA36800209B1BA36023681E442660BDE8F08700002DE9F04F9DB003938B8980461C060D4616460DD50B695BB9402100F0F0
:4020C000F7FA2860286118B90C23C8F80030CDE040236B610023099320238DF82930DFF89CB130238DF82A3037463C4614F8013B1BB9B7EB060910D003E0252BF9D02746C7
:40210000F3E74B46324629464046FFF771FF013000F0A780099B4B4409933B78002B00F0A08000234FF0FF3204930793059206938DF853301A930126052221784E4800F046
:4021400041FA671C049B38B14B4A3C46801A06FA00F018430490EFE7D90644BF20228DF853201A0744BF2B228DF8532022782A2A03D0079A00210A200BE0039A111D126851
:402180000391002A10DA524243F00200079204900BE027463B780134303B092B03D800FB02320121F5E701B107923B782E2B1ED17B782A2B0AD1039B02371A1D1B6803920B
:4021C000002BB8BF4FF0FF33059310E0002319460593781C0A2407463A780130303A092A03D804FB01210123F5E703B1059103223978224800F0E6F940B14023CBEB00003C
:4022000003FA00F0049B013718430490397806221B487E1C8DF8281000F0D4F988B1194B33B9039B073323F007030833039314E003AB00932A46144B04A94046AFF30080F3
:4022400007E003AB00932A460F4B04A9404600F093F8B0F1FF3F824603D0099B5344099342E7AB895B0601D4099801E04FF0FF301DB0BDE8F08F00BFDF280000E528000026
:40228000E928000000000000F11F00002DE9F04791461F460A698B6806469342B8BF1346C9F8003091F843200C46DDF8208012B10133C9F800302368990642BFD9F8003065
:4022C0000233C9F80030256815F0060510D104F1190A07E00123524639463046C04701301AD00135E368D9F800209B1A9D42F1DB94F843302268003318BF012392060FD563
:40230000E118302081F843005A1C94F845102244023382F8431003E04FF0FF30BDE8F08704F1430239463046C0470130F4D02268D9F80050E36802F00602042A08BF5D1BE4
:402340002269A3680CBF25EAE57500259342C4BF9B1AED184FF000091A344D4509D00123224639463046C0470130D5D009F10109F3E70020BDE8F0872DE9F04317460A7EB5
:4023800085B06E2A984606460C460C9B01F1430E00F0AE8011D8632A22D009D8002A00F0BB80582A40F0CA8081F84520834955E0642A1ED0692A1CD0C0E0732A00F0B080FB
:4023C00009D86F2A2ED0702A40F0B8800A6842F020020A603EE0752A24D0782A3AD0ADE01A6801F14205111D1960136884F84230A8E021681A6811F0800F02D0111D1960E2
:4024000008E011F0400F02F10401196002D0B2F9003000E01368002B3CDA2D225B4284F8432037E021681A6811F0800F02D0111D196007E011F0400F02F10401196001D03B
:40244000138800E01368227E5C496F2A14BF0A2208221BE078225A4984F845202268186812F0800F00F104051D6003D1550601D5038800E00368D00744BF42F020022260A9
:402480001BB9226822F0200222601022002084F8430001E049490A226568002DA56008DB206820F0040020602BB9002D7DD175460CE0002B79D07546B3FBF2F002FB103355
:4024C000CB5C05F8013D03460028F5D1082A0BD12368DA0708D5236962689A42DEBF302305F8013C05F1FF35C5EB0E0323612EE008681A6810F0800F496903D0101D186068
:40250000136808E010F0400F02F104001860136801D0198000E0196000232361754616E01A68111D1960156800216268284600F049F808B1401B6060636804E004F14205F5
:4025400084F8422001232361002384F84330CDF800803B4603AA21463046FFF797FE013002D14FF0FF3026E023692A4639463046C0470130F5D023689B0710D5002504F156
:40258000190907E001234A4639463046C0470130E7D00135E368039A9B1A9D42F2DBE068039B9842B8BF184605E00B7804F1420584F842308AE705B0BDE8F083F02800007E
:4025C0000129000010B5C9B202449042034605D01C7801308C42F8D1184610BD002010BD884210B501EB020301D8421E0BE09842FBD28118D21AD34204D013F8014D01F8BC
:40260000014DF8E710BD994204D011F8014B02F8014FF8E710BD000038B50546002944D051F8043C0C1F002BB8BFE41800F0D4F81E4A1368114613B96360146030E0A342F1
:402640000DD92268A018834201BF18685B681218226063600C6023E0A24203D813465A68002AF9D118681918A1420BD12168014458188242196013D11068526801441960FF
:402680005A600DE002D90C232B6009E021686018824201BF106852680918216062605C602846BDE8384000F098B838BD9C81FF1F70B5CD1C25F0030508350C2D38BF0C255A
:4026C000002D064601DBA94202D90C23336046E000F082F8234B1C681A462146A1B10B685B1B0ED40B2B03D90B60CC18CD501EE08C420BBF63684B681360636018BF0C46A6
:4027000015E00C464968E9E7174C23681BB9304600F052F820602946304600F04DF8431C18D0C41C24F00304A0420DD12560304600F053F804F10B00231D20F00700C31A59
:402740000ED05A42E25070BD211A304600F034F80130EBD10C233360304600F03EF8002070BD00BF9C81FF1F9881FF1FF8B5074615460E4621B91146BDE8F840FFF798BFE6
:402780001AB9FFF749FF2846F8BD00F027F885420ED929463846FFF78BFF044650B131462A46FFF7EDFB31463846FFF735FF01E03046F8BD2046F8BD38B5064C00230546B8
:4027C00008462360FDF794FF431C02D1236803B12B6038BDFC81FF1F7047704751F8040C0028BEBF091851F8043CC0180438704700000000746172673D253364000000006D
:4028000056616C323D25640056616C333D256400035B004024430040400000005C5100405C5100405C5100405C5100405C5100406C510040DB5A00409B5A00400102040885
:4028400010100110305100401000C05100401000F0510040100000000140800200030140000D00140140000800400140000A004C0140000200500140200000008002014065
:402880008C050048800000000505050505000000010204081000000028500040295000402A5000402B5000402C500040065200400E520040165200401E520040265200409D
:4028C0002E520040365200407E520040C8C8C8C8C800000000000000000000003F4300232D302B2000686C4C00656667454647003031323334353637383941424344454645
:402900000030313233343536373839616263646566000000F8B500BFF8BC08BC9E4670474D0000006D070000F8B500BFF8BC08BC9E4670472900000048290000C880FF1F76
:4029400090000000A8000000000000000082FF1F0000E02EC05D00001800000000366E0101FF00001F00000003030303030000000100000000000000000000000000000068
:402980000000000000000000000000000000000000000000DD2800000000000000000000000000000000000000000000000000000000000000000000000000000000000012
:4029C0000000000000000000000000000000000000000000F480FF1F0000000000000000000000000000000000000000000000000000000000000000000000000000000045
:402A00000000000000000000000000000000000000000000000000000000000000000000000000000000000000000000000000000000000000000000000000000000000096
:402A40000000000000000000000000000000000000000000000000000000000000000000000000000000000000000000000000000000000000000000000000000000000056
:402A80000000000000000000000000000000000000000000000000000000000000000000000000000000000000000000000000000000000000000000000000000000000016
:402AC00000000000000000000000000000000000000000000000000000000000000000000000000000000000000000000000000000000000000000000000000000000000D6
:020000040003F7
:0200000480007A
:40000000035200400964004002650040530001402D01014014020140330301403B0401402B0501401D0601401507014003090140040A0140010B0140020D01403F14014087
:40004000201501403F1601401C170140011B0140064001400841014006420140084301400244014006450140074601400C4701400548014008490140044C0140024D014007
:400080000550014001510140000801282E1F00FF01FF07FF10FF11FF20FF21FF840D871F850D870D0011020A050206100E100F031201181119011C191E0420082202240250
:4000C000260828112C102D032E01300132083406361037033E143F40403241054562476648335608580459045A045B0F5C015D115F01610C62F0630C650C670C6840694C08
:400100006A406B4C6C906D586F0C803F8E3F920398159C0F9E40A02AA630B00CB203B470BE15C032C104C662C80CD804DA04DD01DF01E10CE2F0E30CE50CE70CE840E94CA9
:40014000EA40EB4CEC90ED58EF0C004001060480064008110A410C200E010F8010A0120A15021620189419821A011B801D2A20022980302038884014452A48A15004510199
:40018000562057405B806240780185128608C09DC2DBC43FCA08CC04CE0AD0E6D208D608D808DE014060410249FF4AFF4BFF4DA04F0450185A045D025F01604062C064408A
:4001C000654066C068C06AC06CC06EC0004009200AD2100812101302184019501A1A2120220A29402A102B882E303020324A384039164104460449024B104C044F10508097
:4002000051045204680869046B0272028F8091129440950496409C109F80A020A380A60AB240C001C207C40ECA0DCC0FCE0FD022D22406060B0412011F012102220C230477
:400240002A022B022D013002310632043401360837013E013F014006410349FF4AFF4BFF4C024D0C4EF852805405580459045A045B045C225D215F01624863A168F06AF07F
:400280006CF06EF0C006C103C6A0C9FFCAFFCBFFCC03CD0CCEF4DA04DD01DF01E248E3A1E8F0EAF0ECF0EEF00004090210801204186C19402101224029402A022B0830808B
:4002C0003A104210462049104E045610580859025A80710280488C1092189408964099129A26A080A708AC10AE01C004C208C40ACA0DCC08CE04D042D224D60BE640940141
:40030000A401B201B808C063C504C650C702C819C9FFCAFFCBFFCC02CD20CF05D110D602D804DA04DB04DC01DD11DE08DF01E040E140E280E480E6800B2010201B084020E1
:4003400042104828500853107240782092109640A708AD01C204C404D002D204DE04E240EE01B401E240EE0138803E4058045F011802E610EC804030410249FF4AFF4BFFF6
:400380004DA04F0450185A045D025F01604062C06440654066C068C06AC06CC06EC083018A069E0CA602AD01AE01B008B201B402B604B701BE10C030C102C5D0C620C71072
:4003C000C82AC9FFCAFFCBFFCDAFCE0FCF04D018D280D405D804D904DA04DB04DC22DD22DF01E040E2C0E440E540E6C0E8C0EAC0ECC0EEC004100F02162017401C101D883E
:400400001E081F0126402F013F024010412045284F015520562057015E885F0177408D80AD04C040C280C4A0CA10CE80D066D6D0E210EC104050410249FF4AFF4BFF4DA000
:400440004F0450185A045D025F01604062C06440654066C068C06AC06CC06EC092019B039E02A101A604AA02AF02B004B302B402B601B701BE10C010C106C5D1C702C81320
:40048000C9FFCAFFCBFFCDAFCE0FCF04D018D280D405D804D904DA04DB04DC22DD22DF01E040E2C0E440E540E6C0E8C0EAC0ECC0EEC009020A011020120419421A051B40C1
:4004C000210422402942302042014604482849014F805008520459015A847102C209C406CA09CC04D028D214D60BEC103002338037408402CC70E21050045F1062089F403C
:40050000A780D420D620D8408E08940897109F40A608A7808F8094089710A308A780AB40AF08EEC07C08DE018C0193109C08B310E608EC011A804508931094019C08C6082B
:40054000D00100013B108F2093109401A508AA40B408C008CE08E202E802251094089710A308C8207B088C049408A308AF10B510DE40EA101F20A508A720C601B508EC088C
:40058000000608060A0610041A04003F00080020000000400052002C3A000440007C00022E3E10400104002016022800006E06100000010020000801007E00000C1E0260EB
:4005C0000101300000000000000000006003000000D0010216FFFFFF00AF0F04180017000000000004040404111200014000C0004040C000C000C000C000C000000000001B
:40060000000000000000000000000000002A2A002A001500000B0B0000000000007F7F0000000000000F0F000000000000001F00000000000000000000001000130018019A
:40064000000000000000000000000000000000000000000000000000000000000000000000000000000000000000000000000000000000000000000000000000000000007A
:40068000000000000000000000000000000000000000000000000000000000000000000000000000000000000000000000000000000000000000000000000000000000003A
:4006C00000000000000000000000000000000000000000000000000000000000000000000000000000000000000000000000000000000000000000000000000000000000FA
:4007000000000000000000000000000000000000000000000000000000000000000000000000000000000000000000000000000000000000000000000000000000000000B9
:0200000490006A
:0400000000004005B7
:0200000490105A
:04000000BC90ACAF55
:0200000490303A
:02000000FD04FD
:0200000490402A
:4000000000000000000000000000000000000000000000000000000000000000000000000000000000000000000000000000000000000000000000000000000000000000C0
:400040000000000000000000000000000000000000000000000000000000000000000000000000000000000000000000000000000000000000000000000000000000000080
:400080000000000000000000000000000000000000000000000000000000000000000000000000000000000000000000000000000000000000000000000000000000000040
:4000C0000000000000000000000000000000000000000000000000000000000000000000000000000000000000000000000000000000000000000000000000000000000000
:0200000490501A
:0C00000000012E12306900012E232D6D2E
:00000001FF